S016000041726475696E6F5F5557505F42542E73726563EC
S113000033C0000041C000003FC000003DC00000FC
S11300103BC0000039C0000037C0000035C00000FC
S113002033C0000031C000002FC000002DC000000C
S11300302BC0000029C0000027C0000025C000001C
S113004023C0000021C000001FC000001DC000002C
S11300501BC0000019C0000017C0000015C000003C
S113006013C0000011C0000011241FBECFEFD8E060
S1130070DEBFCDBF21E0A0E0B1E001C01D92A03001
S1130080B207E1F726D04BC0BBCF95B184B18062F3
S11300908F7784B9892F806A85B90895E0ECF0E000
S11300A0908195FFFDCF8093C6000895E0ECF0E0C9
S11300B080818823ECF78091C60008959093C50051
S11300C08093C40088E18093C1008EE08093C200D5
S11300D0089587E690E0F2DFD8DF259A249A239AE0
S11300E0229A0F2EFCE3FF2EF02D08E310E3D0E25A
S11300F0DDDFC82FD3DFC13311F4D5B9F9CFC23353
S113010011F415B9F5CFC33311F405B9F1CFC433E4
S113011011F4F5B8EDCFC03359F715B8E9CFF89419
S1050120FFCF0B
S9030000FC
