S016000041726475696E6F5F5557505F42542E73726563EC
S113000033C000004CC000004AC0000048C00000DB
S113001046C0000044C0000042C0000040C00000D0
S11300203EC000003CC000003AC0000038C00000E0
S113003036C0000034C0000032C0000030C00000F0
S11300402EC000002CC000002AC0000028C0000000
S113005026C0000024C0000022C0000020C0000010
S11300601EC000001CC0000011241FBECFEFD8E04A
S1130070DEBFCDBF11E0A0E0B1E0E0E5F2E002C0F8
S113008005900D92A430B107D9F721E0A4E0B1E0C6
S113009001C01D92AB30B207E1F752D0D7C0B0CF48
S11300A0EAE7F0E0808187608083ACE7B0E08C9180
S11300B080648C9380818068808380818064808365
S11300C00895ECE7F0E09081907F90839081892BF4
S11300D08083EAE7F0E0808180648083808186FD0C
S11300E0FDCF80917800909179000895E0ECF0E0E4
S11300F080818823ECF78091C60008951092C50092
S113010087E68093C40088E18093C10086E08093F1
S1130110C2000895E0ECF0E0908195FFFDCF80935C
S1130120C6000895CF93DF93EC018881882329F0DA
S11301302196F0DF89918111FCCFDF91CF91089551
S1130140AFDFDCDF259A249A239A229A219A209AF7
S11301501CE3D8E3C0E2CADF8637A9F480E0B1DF4C
S113016090930501809304014AE066E071E03BD07E
S113017080E091E0D7DF86E091E0D4DF8DE0CADF54
S11301808AE0C8DFE8CF813339F4C5B9C3DF8DE035
S1130190C1DF8AE0BFDFDFCF823349F480E385B972
S11301A082E3B8DF8DE0B6DF8AE0B4DFD4CF8333F7
S11301B039F4D5B9AFDF8DE0ADDF8AE0ABDFCBCF6B
S11301C0843339F415B9A6DF8DE0A4DF8AE0A2DF19
S11301D0C2CF803309F0BFCF15B89CDF8DE09ADF22
S11301E08AE098DFB8CFBB274A3031F4992322F450
S11301F0BDE2909581959F4F01C0BB27FB01552718
S1130200AA27880F991FAA1FA41710F0A41B83956F
S11302105051B9F7A05DAA3308F0A95DA1930097E6
S113022079F7B111B1931192CB0100C0DC01FC014B
S1130230672F71917723E1F7329704C07C916D9316
S113024070836291AE17BF07C8F30895F894FFCF87
S10702502020000066
S9030000FC
